:020000040800F2
:10000000401F00209D010008FB44000893320008B7
:10001000F9440008510E00082D4A000800000000B5
:1000200000000000000000000000000005010008C2
:10003000970E00080000000049010008B1460008C2
:10004000B7010008B7010008B7010008B7010008B0
:10005000B7010008B7010008B7010008B7010008A0
:10006000B7010008B7010008B7010008550E0008E5
:10007000B7010008B7010008610E0008B7010008C9
:10008000B7010008B7010008B7010008B701000870
:10009000B7010008B7010008B7010008B701000860
:1000A000B7010008B7010008B7010008B701000850
:1000B000B7010008B701000859470008B701000858
:1000C000B701000895320008B7010008B701000821
:1000D000B7010008B7010008214A0008B70100086D
:1000E000B7010008B7010008B7010008DFF810D019
:1000F00000F020FD0048004711720008AFF30080B7
:10010000401F0020224B19680868B0E8F00F80F308
:100110000988BFF36F8F4FF0000080F311884EF015
:100120000D0E70470000000006480068006880F36C
:10013000088862B661B6BFF34F8FBFF36F8F00DFE1
:1001400000BF00BF08ED00E0EFF30980BFF36F8F41
:100150000F4B1A6820E9F00F106008B54FF05000FF
:1001600080F31188BFF34F8FBFF36F8F08F0FAFD54
:100170004FF0000080F31188BDE808401968086856
:10018000B0E8F00F80F30988BFF36F8F704700BFAE
:100190008C000020EFF30580704700000648804780
:1001A00006480047FEE7FEE7FEE7FEE7FEE7FEE75C
:1001B000FEE7FEE7FEE7FEE757470008ED00000810
:1001C0002DE9F0410024061B254671F1000605DAF1
:1001D00001240027D0EB070067EB0101161E73F125
:1001E000000605DA0027D2EB0702012567EB0303BF
:1001F00000F071FB86460E4617469C46AC4204D082
:100200000025D0EB050E65EB010624B10020D2EBF2
:10021000000760EB030C704631463A466346BDE882
:10022000F081202A04DB203A21FA02F000217047F5
:1002300021FA02F3D040C2F120029140084319464E
:10024000704740EA01039B0703D009E008C9121F69
:1002500008C0042AFAD203E011F8013B00F8013B80
:10026000521EF9D27047D2B201E000F8012B491EAC
:10027000FBD270470022F6E710B513460A46044643
:100280001946FFF7F0FF204610BD30B504460020A8
:10029000034600E05B1C934203D2E05CCD5C401B54
:1002A000F8D030BDF0B480EA0102D40F4200B2EBC6
:1002B000410F02D20246084611464A0042D0C30D01
:1002C000DDB2C1F3C752AD1A202D35DAC1F31601E4
:1002D00041F4000204B15242C5F1200602FA06F1CF
:1002E0002A411044B3EBD05F23D0C4B1012DA0EB61
:1002F000C35009DCF0BC4FF0004202EAC352DBB24B
:1003000000F5000000F042BB400000F1807000EBFF
:10031000C350A0F1807040EAD170490009E049085B
:1003200041EAC071A0EBC35000F50000400800EBAB
:10033000C350F0BC00F021BB6142012202EB41013D
:10034000001BF6E7F0BC704781F00041AAE780F09F
:100350000040A7E780EA010210B502F00043400028
:1003600022D04A001FD0010E01EB1261C0F35600EB
:10037000C2F3560240F4000042F40002A0FB022047
:1003800000047F39140400D0401C50EA124001D40C
:100390004000491EC2B20C0604EBD010401C4008BD
:1003A000802A02D003E0002010BD20F001000029C7
:1003B00000DA0020184310BD30B480EA010202F0D8
:1003C000004530F0004221F0004013D090B1C30D41
:1003D000D40DC2F31601C0F31600E41A41F4000173
:1003E00040F400027D34914201D3641C00E04900D6
:1003F000002C02DA30BC002070474FF400000023CC
:10040000914201D3891A034340084FEA4101F7D1D1
:1004100051B1914202D14FF0004105E002D24FF0BC
:10042000010101E06FF0010103EBC450284430BC2E
:1004300000F0A3BA420005D0C0F3C7525242914225
:1004400001DC0020704700EBC15070472DE9FE4FE2
:10045000804681EA0300C00F0C46009021F0004165
:1004600023F00045B8EB0200A94105D240462146E1
:1004700090461C460B46024623F00040104347D0EE
:10048000270DC7F30A00C3F30A510290401A0190E6
:1004900040286BDAC3F3130040F4801B00989246A7
:1004A00020B10023D2EB030A63EB0B0B01985946F2
:1004B000C0F14002504600F03FFA06460D46504655
:1004C0005946019A00F047FA10EB080061410024F8
:1004D00087EA115284EAE7731A4340D0009A62B364
:1004E000019A012A4FEA075215DC001B61EB020159
:1004F0004FF0004202EA0752CDE90042001C41F5EC
:10050000801132462B4600F07EFA03B0BDE8F08F32
:1005100040462146F9E7001B61EB0201001C41F552
:10052000801300185B412018A2F5001747EB030168
:1005300040EAD570B6196D4111E06D084FEA3606F4
:1005400045EAC0754FEA0752001B61EB0201001C2F
:1005500041F5801149084FEA3000001951413246F7
:100560002B4603B0BDE8F04F00F03EBA00980122E0
:1005700040000023D0EB020263EBE07300982146B9
:100580004FEAE074B8EB000061EB0401E9E783F0A7
:1005900000435BE781F0004158E72DE9FE4F81EA17
:1005A000030404F0004421F0004100944FF0000BDC
:1005B00023F0004350EA01045ED052EA03045BD00A
:1005C000C3F30A54C1F30A552C44A4F2F334019442
:1005D000A0FB0254C1F3130141F48011C3F31303D0
:1005E00043F4801301FB024400FB034E840A970A84
:1005F00044EA815447EA8357A4FB076802958D0AB1
:1006000005FB07854FEA932C04FB0C542705029D3C
:100610004FEA065847EA1637B5EB08056EEB070CAC
:10062000870E920E47EA811742EA8312A7FB020166
:10063000B6EB0B0164EB00042B0D43EA0C335E18A0
:1006400044EB1C50DA465146E7FB0201C5F31304A4
:100650004FEA0B3343EA14534FEA0432019C43EA56
:100660000603A4F10C040294009CCDE900B400F050
:10067000CAF903B0BDE8F08F00200146F9E72DE983
:10068000F04D81EA030404F0004B21F000451446CC
:100690004FF0000A23F0004150EA050220D054EA4E
:1006A00001021DD0C5F30A570246C5F31303C1F377
:1006B0001300C1F30A5640F4801543F48013A7EBEE
:1006C0000608101BD64608F2FD3873EB050002D36E
:1006D00008F1010801E092185B41B8F1000F03DA5C
:1006E00000200146BDE8F08D00204FF48011064641
:1006F00084460EE0171B73EB050705D3121B63EB53
:10070000050306434CEA010C49084FEA30009218F1
:100710005B4150EA0107EDD152EA030012D082EAB0
:10072000040083EA0501084305D0101BAB4106D243
:100730000122002306E000224FF0004302E06FF0A8
:10074000010253101AEB06004CEB085110EB0A00A3
:1007500041EB0B01BDE8F04D00F046B970B521F05A
:10076000004303430CD0C1F30A550024D5EB040524
:1007700064EB0403D617AD1AB34102DB0020014637
:1007800070BD201841EB025170BDC10F80EAE070CE
:100790000844CA079623002100F0F8B896230022E7
:1007A000114600F0F3B80EB540F23341029100213A
:1007B000CDE900110A460B4600F025F903B000BD53
:1007C00000F0004220F00040C10DC0F3160040F4DC
:1007D00000007F2901DA00207047962903DCC1F16F
:1007E0009601C84001E096398840002AF4D0404282
:1007F000704720F00040C10DC0F3160040F4000027
:100800007F2901DA00207047962903DCC1F19601A7
:10081000C8407047963988407047C1F30A5210B5F6
:10082000C1F3130140F2FF3341F480119A4201DA1F
:10083000002010BD40F233439A42A2F2334203DC5F
:100840005242FFF7EEFC10BD904010BD00F0004298
:1008500030F000400AD0C10D01F56071C0F3160000
:1008600042EA0151C2084007114370470020014687
:10087000704701F0004330B421F0004150EA01021A
:1008800006D00A0DA2F56072C1F31301002A02DC42
:1008900030BC00207047440F44EAC104C100E01896
:1008A00030BC00EBC25000F068B830B50B460146D2
:1008B00000202022012409E021FA02F59D4205D3FF
:1008C00003FA02F5491B04FA02F52844151EA2F1A9
:1008D0000102F1DC30BD2DE9F05F054600209246B3
:1008E0009B4688460646814640241BE028464146F2
:1008F00047462246FFF795FC53465A46C01A914197
:1009000010D311461846224600F016F82D1A67EB50
:1009100001084F4622460120002100F00DF817EB98
:1009200000094E41201EA4F10104DFDC4846314697
:100930002A464346BDE8F09F202A04DB203A00FA0D
:1009400002F1002070479140C2F1200320FA03F326
:10095000194390407047202A06DBCB17203A41FA12
:1009600002F043EAE07306E041FA02F3D040C2F13C
:10097000200291400843194670470029A8BF7047DC
:10098000401C490008BF20F00100704710B4B0FAC5
:1009900080FC00FA0CF050EA010404BF10BC704760
:1009A00049B1CCF1200421FA04F411FA0CF118BF7A
:1009B000012121430843A3EB0C01CB1D4FEA006149
:1009C0004FEA102042BF002010BC704700EBC3501C
:1009D00010440029A4BF10BC7047401C490008BF48
:1009E00020F0010010BC704710B5141E73F1000414
:1009F00008DA401C41F1000192185B411A4301D111
:100A000020F0010010BD2DE9F04D92469B4611B13A
:100A1000B1FA81F202E0B0FA80F220329046FFF79C
:100A20008BFF04460F4640EA0A0041EA0B01534699
:100A30005A46084313D0114653EA010019D0C8F1B1
:100A400040025046FFF7EDFB05460E46504659461C
:100A50004246FFF771FF084305D0012004E020461D
:100A60003946BDE8F08D0020054346EAE0762C4388
:100A700037430A986305E40AA0EB08000022FD0A48
:100A800044EA47540A3002D500200146E9E701054F
:100A900010196941DDE9084500196941BDE8F04DCB
:100AA000A2E7C1F30A52C1F3130140F2FF3341F44C
:100AB00080119A4202DA00200146704740F2334327
:100AC0009A42A2F2334202DC5242FFF7AABBFFF77E
:100AD00033BF000030B5041E71F1000404DB4FF099
:100AE0000044404264EB0101141E73F1000405DB75
:100AF0001C464FF00043524263EB04038B4208BF95
:100B0000824230BD30B5041E71F1000404DB4FF0A9
:100B10000044404264EB0101141E73F1000405DB44
:100B20001C464FF00043524263EB0403994208BF56
:100B3000904230BD064C074D06E0E06840F00103EE
:100B400094E8070098471034AC42F6D3FFF7D2FA86
:100B500044A5000864A500082DE9F04D00231A46BD
:100B60001B1A8A4103DB00200146BDE8F08DC1F36A
:100B70000A52C1F3130141F480154FF0000BD10765
:100B800002D100186D41521E0027044640F2FF11A9
:100B9000384601EB620A3E468046024600204FF48A
:100BA0008011FFF73EFBC2197141BB1846EB0100F3
:100BB000B4EB030C75EB000C04D3E41A65EB0005F1
:100BC00017460E46241908F101006D41804634286D
:100BD000E3DDF91946EB0600091BA84103D24FF0EB
:100BE000FF32134601E0002213461BEB070046EBE1
:100BF0000A51BDE8F04DFFF7F7BE70B50446006836
:100C00008168C943C90716D1816821F0010181605B
:100C100000F01EFE054609E000F01AFE401B022807
:100C200004D920688068C043C00706D02068806867
:100C3000C043C007F0D0002070BDA06A40F0100093
:100C4000A062E06A40F00100E062012070BD10B5D2
:100C50000146406A826A12F0500F05D0006A026BAA
:100C6000BDE8104008461047816A41F40071816276
:100C700001688968C1F3424107290CD1017B51B950
:100C8000816A21F480718162816AC90403D4816A16
:100C900041F00101816200F0EBF910BD10B5406A2E
:100CA000816A41F040018162C16A41F00401C16280
:100CB00000F0E0F910BD10B5406A00F0DAF910BD9F
:100CC000F8B500260446009600688168C943C90744
:100CD0002CD0816841F001018160154815490068F8
:100CE000B0FBF1F000E0401E00900028FBD100F0C6
:100CF000AFFD054615E000F0ABFD401B022810D902
:100D000020688068C043C0070BD0A06A40F0100084
:100D1000A062E06A40F00100E06284F824600120F3
:100D2000F8BD20688068C043C007E4D10020F8BD4A
:100D30008800002040420F000EB500204FF0150A39
:100D40004FF033094FF06A080090019002904F462F
:100D5000564645463B4800F0A1F8322007F088FA95
:100D600006226946374800F05DFA374C4FF0FF3BEA
:100D70000321304605F0E4FCBDF8020004F010FF4A
:100D80000B30C6B20321304605F093FC0321284600
:100D900005F0D6FCBDF8000004F002FFC0F17400BD
:100DA000C5B20321284605F084FC4946504605F0AB
:100DB000C7FCBDF8040004F0F3FE0B3000F0FF0A9E
:100DC000BDF8060004F0ECFE2930C0B281460146B1
:100DD000504605F06EFC3946404605F0B1FCBDF8C2
:100DE000080004F0DDFE603000F0FF08BDF80A00E6
:100DF00004F0D6FE2930C7B23946404605F059FC0A
:100E000003F016FC5946206908F07CF90128AFD19F
:100E10000E48BDF8041000230180BDF80810418081
:100E2000BDF806108180BDF80A10C180BDF802101F
:100E30000181BDF8001041811A461946206908F069
:100E4000AFF895E7180C002060000020A4090020EE
:100E5000FEE70000014800F0DFBA0000480C002067
:100E6000014800F0D9BA0000340D002030B590F8E8
:100E700040500124AC40C56B6C60046863604368FB
:100E8000102B036803D099600068C26030BD9A607F
:100E90000068C16030BD704772B6FEE7F8B5002645
:100EA0000446009690F8240001280BD0012084F815
:100EB00024002046FFF7A1FE2046FFF701FF0700B0
:100EC00002D050E00220F8BDA06A20F4885040F023
:100ED0000200A062022001F03FFB25490968B1FB36
:100EE000F0F0400000E0401E00900028FBD1206898
:100EF000816841F00801816000F0AAFC054608E025
:100F000000F0A6FC401B0A2803D92068806800076F
:100F100015D4206880680007F2D42068816841F009
:100F20000401816000F094FC054612E000F090FCA2
:100F3000401B0A280DD920688068400709D5A06A9F
:100F400020F0020040F01000A06284F8246001202C
:100F5000F8BD206880684007E8D4A06A20F002004D
:100F600040F00100A06284F824603846F8BD00001B
:100F700088000020F8B50023009390F824201C4638
:100F8000012A12D0012280F824204A681F26072A4D
:100F90000DD205686F6B521E02EB82029640B7437A
:100FA0000E68964037436F6319E00220F8BD05686C
:100FB0000D2A0AD22F6BD21F02EB82029640B74352
:100FC0000E68964037432F6309E0EF6A0D3A02EB53
:100FD00082029640B7430E6896403743EF620A6834
:100FE000072605680A2A0AD3EF680A3A02EB42028A
:100FF0009640B7438E6896403743EF6008E02F690C
:1010000002EB42029640B7438E68964037432F6109
:101010000A68102A01D0112A20D1124D0268AA4272
:1010200017D195682D0219D4956845F4000595608F
:101030000968102912D10C490C4A0968B1FBF2F178
:1010400001EB8101490000E0491E00910029FBD11C
:1010500004E0816A41F020018162012380F824408C
:101060001846F8BD002401408800002040420F00CF
:1010700070477047704700002DE9F0414FF00006BF
:10108000040035467DD0A06A002728B9E76284F8BD
:101090002470204600F07EF82046FFF7AEFDA16ADE
:1010A000C90600D420B1A06A40F01000A06268E038
:1010B000A16A21F4885141F00201A1626268E169EC
:1010C000237B0A4346EA43010A43A1684FF4807632
:1010D000B14208D0012906D0002194F814C0BCF117
:1010E000010F02D00AE03146F7E7F3B1A36A43F0FB
:1010F0002003A362E36A43F00103E3622368D3F8A9
:1011000004C02CF4694C4CEA010CC3F804C02168FB
:101110008B68DFF874C003EA0C0313438B60A1688B
:10112000B1420BD0012909D00CE0DFF860C0A369FF
:101130000CEB43330B4343F40061DFE7218A0D05D9
:10114000A5F580152168CB6A23F470032B43CB628D
:10115000216889680E4B1940914208D1E762A16A63
:1011600021F0020141F00101A162BDE8F081A06A15
:1011700020F0020040F01000A062E06A40F00100A0
:10118000E0620120F1E70000FDF7E1FF00E0FFFF72
:10119000FE0E1FFF70B586B0002406460094019431
:1011A0000294039400681A4988422FD1194988692A
:1011B00040F400708861886900F4007004908869C8
:1011C00040F0040088618869694600F004000490DA
:1011D000F3200090032001900F4800F041FA104DD9
:1011E0000E48C5E900048020C5E90240400028619E
:1011F000800068612020A861C001E861284600F0F5
:10120000B7F908B1FFF748FE35626E6206B070BDEF
:101210000024014000100240000801400800024084
:10122000480C00202DE9F047894604463B490068F8
:101230003B4F0E1D9046884201D0B84207D130681E
:1012400010F4702F03D001252846BDE8F08794F8EC
:10125000240001280CD0012084F824002046FFF748
:101260002FFD05004FF0000104D084F82410EBE7B7
:101270000220EAE7A06A40F60162904340F48070E1
:10128000A0622068B84218D1326812F4702F14D0CE
:10129000A06A40F48010A0623068400505D5A06ABD
:1012A00020F4005040F48050A062A06AC0040AD527
:1012B000E06A20F00600E06206E0A26A22F48012F2
:1012C000A2624068E9E7E16284F82410216A1548C7
:1012D0008862216A1448C862216A14480863216838
:1012E0006FF0020008602068816841F480718160BD
:1012F000216843464A464C31206A00F067F920686D
:101300008168C1F342410729816803D041F480110B
:10131000816099E741F4A001FAE700000024014050
:10132000002801404F0C0008B70C00089D0C000875
:1013300010B590F821100022022905D00421816304
:1013400080F82020012010BD01680B6823F00E03F7
:101350000B6001680B6823F001030B6090F84030CC
:10136000012404FA03F1C36B596080F8214080F82E
:101370002020104610BD000010B590F82110002468
:10138000022903D00421816301243DE001680A6839
:1013900022F00E020A6001680A6822F001020A6067
:1013A0001A4A0168914201D1012121E0174A143201
:1013B000914201D110211BE0144A2832914201D1FF
:1013C000891515E0114A3C32914201D189140FE090
:1013D0000E4A5032914202D14FF4803108E00B4A5C
:1013E0006432914202D14FF4801101E04FF08071DC
:1013F000064A083A5160012180F82110002180F846
:101400002010416B01B18847204610BD0800024002
:1014100090F82100704700002DE9F05FC16B0B6868
:1014200001680A68046C4FF0040C0CFA04FC4A4D85
:10143000DFF828A14A4E4B4FDFF82CB1DFF82CE142
:101440001CEA030F2DD05FEA427C2AD50A68920677
:1014500003D40A6822F004020A600168A94201D19B
:10146000042119E0514501D1402115E0B14202D1DA
:101470004FF4806110E0B94202D14FF480410BE09B
:10148000594502D14FF4802106E0714502D14FF455
:10149000800101E04FF080612F4A083A5160C16A33
:1014A0003BE04FF0020808FA04F818EA030F4FF087
:1014B00000094FF0010C35D05FEA827832D50A6816
:1014C000920605D40A6822F00A020A6080F821C058
:1014D0000168A94201D1022119E0514501D1202121
:1014E00015E0B14202D14FF4007110E0B94202D1CF
:1014F0004FF400510BE0594502D14FF4003106E0A2
:10150000714502D14FF4001101E04FF00071124A11
:10151000083A516080F82090816A00291AD0BDE80D
:10152000F05F08470825A5401D4213D0120711D5CA
:101530000A6822F00E020A6090F84010C26B0CFAA2
:1015400001F15160C0F838C080F821C080F82090C7
:10155000016BE2E7BDE8F09F080002401C0002407A
:101560003000024044000240580002406C0002403B
:1015700030B528B302C8134A14230A44B2FBF3F26D
:101580009200C263104A8263022242770B6843F6DC
:10159000F0729343D0E900242243D0E902452C4362
:1015A00022430469224344692243846922431A4343
:1015B0000A6000214163012242770177084630BD6D
:1015C000012030BDF8FFFDBF0000024070B50446A9
:1015D00090F82000002501280CD0012084F820007C
:1015E00094F821600020012E06D084F82000022506
:1015F000284670BD022070BD022684F82160A063D9
:101600002068066826F0010606602046FFF72EFCDB
:10161000E06A00282068016802D041F00E0106E06F
:1016200021F0040101602068016841F00A010160B5
:101630002068016841F001010160D9E770B50446F6
:1016400000F006F90546601C02D004480078044406
:1016500000F0FEF8401BA042FAD370BD7C000020D1
:101660002DE9F84FDFF8A4910024A9F1040B2346DB
:101670004FF00F0809F1040AABF1040EBEE0012798
:10168000A7403A40BA4272D1DFF884C14D68A5EB59
:101690000C0665452BD00DDC032D34D005DC35B3AD
:1016A000012D19D0022D2FD11BE0112D16D0122D96
:1016B0002AD119E0B6F5881F19D006DCB6F5803FAF
:1016C00015D0B6F5801F1FD111E0B6F5001F0ED062
:1016D000B6F5041F18D10AE0CB6815E0CB681B1DD6
:1016E00012E0CB6808330FE0CB680C330CE08B685A
:1016F0002BB1012B4FF0080303D0476104E0042312
:1017000002E0076100E00023FF2A01D8064601E05D
:1017100000F104064FEA840501D9A5F120053768D8
:1017200008FA05FC27EA0C0703FA05F547EA05075E
:1017300037604D68ED0060D5364DAE6946F0010664
:10174000AE61AD6924F0030605F001050095324D48
:101750007719BE68A5072D0F08FA05FC26EA0C06C6
:10176000DFF8B8C0604503D14FF0000C17E044E04B
:10177000DFF8ACC0604502D14FF0010C0FE0DFF89C
:10178000A4C0604502D14FF0020C08E0DFF898C019
:10179000604502D14FF0030C01E04FF0040C0CFA4D
:1017A00005FC4CEA060CC7F808C04D68D9F8006083
:1017B000ED024D4601D5164300E096432E604D687C
:1017C000DAF80060AD02554601D5164300E09643B5
:1017D0002E604D68DBF80060AD035D4601D5164311
:1017E00000E096432E604D68DEF80060ED0375461C
:1017F00001D5164300E096432E60641C0A6832FA55
:1018000004F57FF43CAFBDE8F88F00000804014008
:1018100000001110001002400000014000080140CB
:10182000000C014000100140001401408068084095
:1018300000D001207047C26821EA02030A4043EA4F
:101840000241016170470AB1016170470904FBE779
:1018500001488068704700007C0000207047704796
:101860002DE9F047026800215368C66A90F83E40AF
:1018700090F83D50102C12D0402C10D0046C002C4D
:101880007DD05469E443A6077AD4DE43B60577D405
:10189000036C03B19169BDE8F04702F057BA97694C
:1018A00051694FF42A0CC9435FEAC1784FF02A49C5
:1018B00004D066452AD04E4528D010E0DE43B60558
:1018C0000DD4C16A614501D1012103E0C16A4945D6
:1018D00001D10821C162BDE8F04702F0CBB80E0784
:1018E00016D4DE43B60513D4416CC9B21161416B05
:1018F00009B1896A29B9816B002907D0896A002951
:1019000004D00068416841F400614160BDE8F0879F
:101910008E0706D4DE43B60503D4BDE8F04701F0D8
:10192000FDBFFE43526876074FEA02521DD4002ADB
:10193000ECDB0A0608D4DA43520505D4490705D57D
:10194000BDE8F04701F090BF4907DFD4D9438905CE
:10195000DCD4212D05D0402CD8D1BDE8F04702F0D1
:10196000CEB8BDE8F04701F03FBF002ACEDB4A0603
:101970000BD4DA43520508D4490708D501E00DE03D
:101980000EE0BDE8F04701F0BBBE4907BED4D94325
:101990008905BBD4BDE8F04701F049BE916970E705
:1019A000E10606D4D943890503D4BDE8F04702F027
:1019B000F1B92826212D27D0292D25D0610655D40F
:1019C000D943490552D4610752D590F83D10438D53
:1019D000002B9BD01269436A1A70426A521C426201
:1019E000428D521E4285428D002A8FD12A298DD1E7
:1019F00001684A6822F480624A602221016380F80B
:101A00003D6000F0EFFC81E7210623D4D94349056E
:101A100020D4610720D590F83D10438D002BF2D0E3
:101A2000436A1B781361426A521C4262428D521E05
:101A30004285428D002AE6D12929E4D101684A680D
:101A400022F480624A602121016380F83D6000F049
:101A5000CAFC5BE76107D6D4D9438905D3D4418D4D
:101A60000029D0D0416A097811610AE06107CAD41F
:101A7000D9438905C7D4418D0029C4D01169426A70
:101A80001170416A491C4162418D491E41853DE703
:101A90007047000070B5040025D094F83D00002583
:101AA00020B984F83C50204600F024FC242084F81F
:101AB0003D002068016821F0010101602068016893
:101AC00041F4004101602068016821F40041016097
:101AD00000F0C4FE4D4B6168994201D84C4900E0CA
:101AE0004C49884201D2012070BD4B492268B0FBAD
:101AF000F1F1566826F03F060E43566062689A423E
:101B000006D94FF4967251434FF47A72B1FBF2F159
:101B10002268491C166A26F03F063143116261684B
:101B2000994210D84900401EB0FBF1F2521CC2F39A
:101B30000B02042A01D2042022E0B0FBF1F0401C89
:101B4000C0F30B001CE0A268F2B301EBC10303EB8E
:101B50000116431EB3FBF6F35B1C43F480431B05E5
:101B600049D092B301EBC10202EB0111401EB0FB60
:101B7000F1F0401CC0F30B0040F4804040F4004002
:101B80002168CA694CF6FF739A431043C861D4E9CF
:101B9000071001432068026822F0C002114301606F
:101BA000D4E9030101432068826848F2FF339A4375
:101BB00011438160D4E9051001432068C26822F016
:101BC000FF021143C16001E00EE016E020680168E9
:101BD00041F0010101602564202084F83D00256367
:101BE00084F83E50002070BD01EB4106431EB3FB5C
:101BF000F6F35B1CB3E70120C2E701EB4101401E95
:101C0000B0FBF1F0401CC0F30B00B7E7A086010069
:101C100080841E0000093D0040420F00704770475D
:101C20001CB50948417800290CD0084A0078802169
:101C300002EBC010CDE900010123402278210448C5
:101C400000F090FA1CBD000038000020A405002020
:101C5000E00C0020F8B500250446009590F83D0002
:101C6000202828D14C4846F2A8160068B0FBF6F0B0
:101C700000EBC00606EB0010202600900098401EE6
:101C8000009010D020688069C0438007F6D594F892
:101C90003C0001280FD0012084F83C002068076830
:101CA000FF070AD00DE044F8305F6673A573206922
:101CB00040F0200020610220F8BD076847F00107CE
:101CC00007602068076827F400670760212084F810
:101CD0003D00102084F83E00256462626385608DBB
:101CE00020852E48E0626164208DE0B3606BE8B12E
:101CF0002B498162616B2B480863606BC562606B26
:101D000045632268238D1032616A606BFFF75EFCC9
:101D1000A8B184F83D6084F83E5054F8400F40F07C
:101D2000100044F8040901202570F8BD84F83D60D6
:101D300084F83E5054F8400F40F08000F1E784F8FA
:101D40003C502068416841F440714160206841681E
:101D500041F4006141602068016841F480610160E4
:101D60002068016800E003E041F48071016010E048
:101D70002068016841F4806101602068016841F4D5
:101D80008071016084F83C502068416841F4E06152
:101D900041600020F8BD0000880000200000FFFF27
:101DA0008F33000859330008704700000A4908784B
:101DB00007280DD04A78002A0DD0401CC0B2087008
:101DC0000649042301EB800278210548FFF742BF52
:101DD000002048700870704738000020040100207F
:101DE000E00C00202DE9FF4F83B00026DDE91079DB
:101DF0009A4693460446DDF848800096FFF728FD92
:101E0000054694F83D0020287CD1192301228549FC
:101E10002046009502F097F80028F5D194F83C0090
:101E200001286FD0012084F83C0020680168C907B0
:101E300003D1016841F0010101602068016821F4CB
:101E400000610160222084F83D00402084F83E00BB
:101E500026646762A4F82A90608D20857248E0624B
:101E6000CDE9008553465A462046049901F09CFE70
:101E700000287DD1208DDFF8B491202768B101289A
:101E800014D00228206801681ED041F480610160EE
:101E90002068416980690090B6E0206841698169E5
:101EA0000091016841F400710160ADE020680168B3
:101EB00021F48061016072B62068416981690091F6
:101EC000016841F400710AE041F40061016072B6FA
:101ED0002068416981690091016821F48061016095
:101EE00062B691E0032868D801280CD00228434646
:101EF0004FF000024946204600950FD002F023F82B
:101F0000B0BB10E08BE02A464146204602F0BCF808
:101F100070BB20680069616A08706CE002F013F819
:101F200030BB72B634E02068016821F48061016042
:101F300072B620680069616A0870606A401C60625D
:101F4000208D401E2085608D401E6085384846F2F9
:101F5000A8110068B0FBF1F0C0EBC00000EB8000FE
:101F60000090401E009008D020684069C04300E007
:101F700029E040070CD50098F3E744F8306F677309
:101F8000A673206940F02000206162B626731AE033
:101F90002068016841F40071016020680069616A8D
:101FA0000870606A401C6062218D491E2185618D28
:101FB000491E618562B621681BE02A4641462046DB
:101FC00002F062F818B1012007B0BDE8F08F206878
:101FD0000069616A0870606A401C6062218D491E58
:101FE0002185618D491E618521684A69D243520766
:101FF0000AD409690170606A401C6062208D401E2D
:102000002085608D401E6085208D00287FF46AAF9A
:1020100084F83D7084F83E6084F83C60D4E7022088
:10202000D2E70000020010000000FFFF04000100E2
:10203000880000202DE9FF4F83B09A46DDE9119713
:1020400093460446DDF84080FFF702FC054694F80D
:102050003D0020287FD119230122404920460095C8
:1020600001F071FF002876D194F83C00012872D06D
:10207000012084F83C0020680168C90703D1016889
:1020800041F0010101602068016821F400610160F4
:10209000212084F83D00402084F83E00002626647C
:1020A000C4F82480A4F82A90608D20852C48E06232
:1020B000CDE9007553465A462046049901F0F2FDD9
:1020C00070B930E02A463946204602F017F858B178
:1020D000206C042804D12068016841F4007101607B
:1020E000012007B0BDE8F08F606A216800780861C0
:1020F000626A521C6262208D401E80B22085618D12
:10210000491E618521684B69DB435B070BD468B1CD
:1021100010780861606A401C6062208D401E208536
:10212000608D401E6085208D0028CBD12A4639461F
:10213000204601F0DDFE0028CAD154F83D0B0168AD
:1021400041F400710160202004F81E09E6776677EB
:102150000020C6E7FFE70220C3E7000002001000EE
:102160000000FFFF2DE9FC5F0025984691468A4656
:102170000446DDF830B00095FFF76AFB074694F897
:102180003D00202828D157482026016846F2A81093
:10219000B1FBF0F000EBC00101EB001000900098E3
:1021A000401E009010D020688069C0438007F6D59B
:1021B00094F83C0001280FD0012084F83C002068EE
:1021C0000168C9070BD00EE044F8305F6673A57351
:1021D000206940F0200020610220BDE8FC9F0168DA
:1021E00041F0010101602068016821F40061016093
:1021F000212084F83D00402084F83E002564C4F886
:1022000024B00D986085608D20853748E062C4F861
:1022100044A0C4F84890C4F84C802565208DE8B3EC
:10222000606BE8B131498162616B31480863606B72
:10223000C562606B45632268238D1032616A606BF2
:10224000FFF7C4F9A8B184F83D6084F83E5054F813
:10225000400F40F0100044F8040925700120BCE74D
:1022600084F83D6084F83E5054F8400F40F0800000
:10227000F1E72320CDE9000743464A465146204670
:1022800001F010FD98B1606BFFF776F8606B856226
:102290002068016821F48061016000E018E0258574
:1022A00065852068016821F001010160D6E720689A
:1022B00041698169009184F83C50416841F4807122
:1022C00041602068416841F400614160002084E77A
:1022D00084F83D6084F83E5054F8400F40F04000D0
:1022E000B9E70000880000200000FFFF8F330008DE
:1022F00059330008F0B585B00024064600940194D7
:10230000029403940068304F304D12210323304A69
:10231000B84220D1A86940F00800A861A8690393D9
:1023200000F0080004901802CDE90001694610464B
:10233000FFF796F92749486840F0E06040F0020056
:102340004860E86940F40010E861E86900F40010B2
:10235000049005B0F0BD204FB842FAD1A86940F012
:102360000800A861A869039300F0080004904FF4E6
:102370004060CDE9000169461046FFF771F9E86950
:1023800040F48000E861E869154D00F48000049095
:10239000124828601020C5E901048020C5E9030423
:1023A0006C61AC612846EC61FFF7E2F808B1FEF71A
:1023B00073FD75630022052121206E6200F09AF8FA
:1023C000212000F089F8C4E70054004000100240CA
:1023D000000C014000000140005800404400024051
:1023E000340D00207047704702488168027811441C
:1023F000816070477C000020074810B5016841F0FB
:1024000010010160032000F095F80F2000F006F89D
:1024100000F03EF8002010BD0020024000B501464B
:1024200087B000221E2000F065F81E2000F054F84E
:102430001348C16941F00401C161C06905A900F0F8
:1024400004000690684600F0E9F900F007FA0D492B
:102450004000B0FBF1F10D480B4A491E026041609B
:1024600040F2E7320021C0E90321816000F0CAFB9D
:1024700010B1012007B000BD044800F0F1FBF9E7FE
:102480000010024040420F0000080040080E0020EB
:102490000F4808B5816941F001018161816901F04E
:1024A00001010091C16941F08051C161C069002200
:1024B00000F0805000900F21901E00F01BF805499D
:1024C000486820F0E06040F00070486008BD0000FF
:1024D0000010024000000140002809DB00F01F024C
:1024E000012191404009800000F1E020C0F8001176
:1024F00070470000F0B40E4B1B68C3F30223C3F116
:102500000704042C00D904241D1D072D01D200232B
:1025100000E0DB1E012606FA04F56D1E0D409D400D
:102520009E40761E164045EA0601F0BC02F0A4BAB1
:102530000CED00E0064A00F0070110684FF6FF03BB
:10254000184040EA0120034908431060704700002A
:102550000CED00E00000FA0510B501460020234C08
:10256000012922D0022939D010291DD161682268A1
:10257000D20119D51E48C1F38342C903805C0AD534
:1025800061681B4AC1F34041921E515C194AB2FB7B
:10259000F1F1484301E0184948436168490203D416
:1025A00040000321B0FBF1F010BD226AC2F301210B
:1025B000012903D1920701D5C80310BD022905D115
:1025C000626A920702D549F6404010BD0329FCD14A
:1025D00021688903F9D54FF2244010BD00F04EF96F
:1025E0006168C1F38131491C4900DBE700100240FA
:1025F000B8A3000800127A0000093D002DE9F84355
:1026000004460078344FC00752D0F8690025C00056
:1026100008D4F86940F08050F861F869012500F0AD
:10262000805000902D480168C90511D4016880468A
:1026300041F480710160FFF70BF9064604E0FFF7F3
:1026400007F9801B642822D8D8F80000C005F6D509
:10265000386A10F4407020D0A18801F440718142A2
:102660001BD0386A1E49012220F440700A60002203
:102670000A603862C00710D0FFF7EAF8064641F258
:10268000883807E0FFF7E4F8811B414502D90320B1
:10269000BDE8F883386A8007F4D5386A616820F4A9
:1026A0004070084338621DB1F86920F08050F8612D
:1026B0002078800705D57868A16820F44040084359
:1026C00078602078C00605D57868E16820F480003D
:1026D000084378600020DBE70010024000700040F3
:1026E000400442422DE9F0470D46040067D0DFF870
:1026F0001881D8F8000000F00700A8420CD2D8F8E2
:10270000001021F007012943C8F80010D8F8000094
:1027100000F00700A84252D120683C4E810712D534
:10272000400703D5706840F4E060706020780007CF
:1027300003D5706840F4605070607068A16820F044
:10274000F000084370602078C00727D06068012837
:1027500010D03168022810D0890700292FDA71685B
:1027600021F0030101437160FFF772F8074641F25F
:1027700088390CE031688903EFE78901EDE7FFF75D
:1027800067F8C11B494502D90320BDE8F08770688E
:10279000616800F00C00B0EB810FF0D1D8F80010A8
:1027A000404601F00701A9420BD9016821F0070159
:1027B00029430160006800F00700A84201D0012011
:1027C000E3E72078400705D57068E16820F4E06011
:1027D000084370602078000706D57068216920F4EE
:1027E000605040EAC100706000F058F87168084A13
:1027F000C1F30311515CC8400649086006480068EF
:10280000FFF70CFE0020C0E700200240001002404D
:10281000C8A3000888000020800000200F2202606A
:102820000C4A536803F003034360536803F0F0035A
:102830008360536803F4E063C36052684FF4E0635D
:1028400003EAD20202610448006800F00700086051
:102850007047000000100240002002400448054973
:1028600000684968044AC1F30221515CC8407047BE
:102870008800002000100240D8A300080448054941
:1028800000684968044AC1F3C221515CC8407047DE
:102890008800002000100240D8A300080E4B5968A1
:1028A0000E4801F00C02042A11D0082A0FD10C485E
:1028B000C1F38342C903805C0AD55968084AC1F351
:1028C0004041921E515C054A5043B0FBF1F0704705
:1028D00004494843704700000010024000127A008B
:1028E000A6A3000800093D002DE9F84F04006FD0B1
:1028F0002078BE4DC00747D06868C0F3810001282A
:1029000007D06868C0F38100022809D16868C00355
:1029100006D52868800337D560680028E7D033E003
:102920006068B0F5803F0BD010B1B0F5A02F11D08A
:10293000286820F480302860286820F4802002E095
:10294000286840F480302860606888B1FEF780FF16
:10295000064609E0286840F480202860F0E7FEF78A
:1029600077FF801B642873D828688003F7D50BE0B5
:10297000FEF76EFF064604E0FEF76AFF801B642840
:10298000F1D828688003F7D42078DFF864828007C4
:102990004FF0010A4FF0000939D5686810F00C0FAC
:1029A00007D06868C0F38100022809D16868C003B5
:1029B00006D42868800714D52069012808D110E0C2
:1029C0002069B0B1C8F800A0FEF742FF064605E056
:1029D00007E1FEF73DFF801B0228C4D82868800766
:1029E000F7D52868616920F0F80040EAC100286046
:1029F0000DE0C8F80090FEF72BFF064604E0FEF756
:102A000027FF801B022823D828688007F7D4207866
:102A100000072CD57748A169D9B1C0F800A0FEF70E
:102A200017FF064604E0FEF713FF801B02280FD8AD
:102A3000686A8007F7D570484FF4FA510068B0FB18
:102A4000F1F0009000BF0098411E0091FAD20EE014
:102A50007CE0C0F80090FEF7FBFE064604E0FEF7BF
:102A6000F7FE801B022871D8686A8007F7D42078A7
:102A700040075BD5E8690027C00008D4E86940F04A
:102A80008050E861E869012700F0805000905B48C1
:102A90000168C90511D40168834641F48071016061
:102AA000FEF7D6FE064604E0FEF7D2FE801B642841
:102AB0004CD8DBF80000C005F6D5E06801280AD044
:102AC00008B1052813D0286A20F001002862286A7E
:102AD00020F0040002E0286A40F001002862E0686B
:102AE00041F2883B88B1FEF7B3FE064609E0286A4A
:102AF00040F004002862EEE7FEF7AAFE811B59456C
:102B00005BD8286A8007F7D50BE0FEF7A1FE0646E2
:102B100004E0FEF79DFE811B59454ED8286A8007C8
:102B2000F7D41FB1E86920F08050E861E069A8B3EC
:102B30006968C1F38101022946D00228484606D0BF
:102B4000C8F86000FEF784FE044639E035E04746E9
:102B5000C8F86000FEF77CFE064604E0FEF778FE4B
:102B6000801B022829D828688001F7D4206AB0F594
:102B7000803F05D16868A16820F400300843686090
:102B8000D4E908010843696821F4741108436860B6
:102B9000C7F860A0FEF75CFE044605E023E0FEF700
:102BA00057FE001B022808D828688001F7D51AE0D4
:102BB000FEF74EFE001B022802D90320BDE8F88F65
:102BC00028688001F4D40EE00128F7D06868226AF2
:102BD00000F48031914204D1616A00F4701088429F
:102BE00001D00120EAE70020E8E7000000100240E1
:102BF00000004242800442428800002000700040F1
:102C00007047704710B5040003D094F83D0010B130
:102C100007E0012010BD002084F83C00204600F0B1
:102C20001EF8022084F83D00211D206801F09AFD65
:102C3000012084F8460084F83E0084F83F0084F8C0
:102C4000400084F8410084F8420084F8430084F88E
:102C5000440084F8450084F83D00002010BD704712
:102C600090F83D10012901D001207047022180F821
:102C70003D100168CA6842F00102CA6000680B4951
:102C8000884208D0B0F1804F05D00949884202D06F
:102C90000849884204D1816801F00701062903D060
:102CA000016841F00101016000207047002C0140E3
:102CB0000004004000080040704770B504460068FA
:102CC00001694FF00005C943890715D4C168C9439C
:102CD000890711D4E91E01610120207720688069ED
:102CE0008007204602D0FFF7E7FF04E000F098F8E5
:102CF000204600F096F8257720680169C943490706
:102D000017D4C168C943490713D46FF004010161A6
:102D1000022020772068806910F4407F204602D08E
:102D2000FFF7CAFF04E000F07BF8204600F079F8D6
:102D3000257720680169C943090716D4C168C943CA
:102D4000090712D46FF00801016104202077206880
:102D5000C0698007204602D0FFF7AEFF04E000F014
:102D60005FF8204600F05DF8257720680169C943C7
:102D7000C90617D4C168C943C90613D46FF010013E
:102D80000161082020772068C06910F4407F204648
:102D900002D0FFF791FF04E000F042F8204600F077
:102DA00040F8257720680169C943C90708D1C1687F
:102DB000C943C90704D1891E0161204600F032F8D9
:102DC00020680169C943090609D4C168C9430906D5
:102DD00005D46FF0800101612046FFF711FF2068E4
:102DE0000169C943490609D4C168C943490605D4E4
:102DF0006FF040010161204600F01EF82068016973
:102E0000C94389060BD4C168C943890607D46FF04A
:102E1000200101612046BDE87040FFF7F2BE70BDA1
:102E20007047704700680349884201D1FFF7DCBA58
:102E3000704700000008004070477047704700006E
:102E4000F8B5016804460868CA684B6910F00F0FAE
:102E50004FF0000559D003F0010602F49077374394
:102E600065D0C10705D0D10503D5616C41F00101E2
:102E70006164410705D5D90703D0616C41F00201B7
:102E80006164810705D5D90703D0616C41F0040165
:102E90006164010707D502F02001314303D0616C62
:102EA00041F008016164616C00293AD0800604D5C4
:102EB000900602D5204601F0BAFC20684069616C9A
:102EC000C0F38010090700D460B3204601F088FCED
:102ED00020684069400621D52068143050E8001F62
:102EE00021F0400140E80012002AF5D1E06BA8B1C2
:102EF0006D494163E06BFEF73FFA002811D0E06BAB
:102F0000416B01B0BDE8F040084783060FD593063A
:102F10000DD52046BDE8F84001F089BC2046FFF7FA
:102F20008DFFF8BD2046FFF789FF6564F8BD266B6D
:102F30002023012E7CD1C6067AD5D60678D508681E
:102F40004868009048694FF00206400640D5E16BA2
:102F5000086840680004000CE8D0A28D8242E5D9E0
:102F6000E085886920282DD020680C3050E8001FAB
:102F700021F4807140E80012002AF5D12068143055
:102F800050E8001F21F0010140E80012002AF5D1AD
:102F90002068143050E8001F21F0400140E8001282
:102FA000002AF5D184F84230256320680C3050E8BF
:102FB000001F21F0100140E80012002AF5D1E06B5B
:102FC000FEF7B6F96663A08DE18D401A81B22AE062
:102FD000A08DE18D401A81B2E08D0028A6D0002995
:102FE000A4D020680C3050E8002F22F4907240E802
:102FF0000027002FF5D12068143050E8002F22F070
:10300000010240E80027002FF5D184F84230256303
:1030100020680C3050E8002F22F0100240E8002316
:10302000002BF5D166632046FFF707FFF8BDFFE7E9
:1030300005062BD5150629D594F841002128F5D190
:10304000A068B0F5805F01D12069B0B1206A411C51
:103050002162216800784860E08C401E0004000C6A
:10306000E084E3D12068C16821F08001C16020685C
:10307000C16841F04001C160D8E7206A0088C0F310
:1030800008004860206A801C2062E5E74006CDD534
:103090005006CBD5CA68204622F04002CA6084F8A8
:1030A000413000F0F5F8C1E7D147000870B50400E1
:1030B00004D094F84100002510B106E0012070BD55
:1030C00084F84050204600F023F8242084F8410082
:1030D0002068C16821F40051C160204601F008FC5D
:1030E0002068016921F4904101612068416921F063
:1030F0002A0141612068C16841F40051C1606564E2
:10310000202084F8410084F842006563002070BDEF
:1031100030B585B0002400940194029403942F4D9F
:1031200001682F4802220323A94229D1816941F471
:1031300080418161816901F480410491816941F09C
:10314000080181618069274D00F00800049040204B
:10315000CDE90002694603932846FEF781FA8020F4
:10316000CDE90004694628460294FEF779FA1E4923
:10317000486840F0E06040F00400486005B030BDB1
:103180001A4DA942FAD1C16941F40031C161C16946
:1031900001F400310491816941F004018161806989
:1031A000134D00F0040004900420CDE900026946AC
:1031B00003932846FEF754FA0820CDE90004694637
:1031C00028460294FEF74CFA002205212620FFF73C
:1031D00091F92620FFF780F9D0E700000038014080
:1031E00000100240000C014000000140004400407B
:1031F0000008014070472DE9F843044690F841006B
:103200001F4615460E46202802D00220BDE8F8834E
:103210007EB175B100206064212084F84100FEF782
:1032200017FBA5848046E584A068B0F5805F02D0D6
:1032300003E00120EAE7206910B1354600260EE0E0
:1032400000250CE08021204601F0AEFBA0B9ADB115
:1032500015F8010B21684860E08C401EE084E08C8A
:1032600043464FF0000200970028EBD14FF0400199
:10327000204601F099FB30B10320C7E736F8020B76
:10328000C0F30800E6E7202084F841000020BDE7F5
:103290007047FEE70148FEF7E3BA0000E00C0020AB
:1032A00038B5406A002290F83D302A490C6846F251
:1032B000A811B4FBF1F1C1EBC10101EB8101009157
:1032C00039B1491E009101680968890505D5009941
:1032D000F6E7016C41F020010164416B01B18A62A3
:1032E000816B01B18A6201680C6824F480640C600F
:1032F0004285416B01B14A63816B01B14A63016848
:103300000C6824F001040C6090F83D402021602CF2
:103310000AD0282434EA03030ED080F83D1080F848
:103320003E20FEF7B5FB38BD80F83D1080F83E200A
:103330000264FEF793FA38BD01680B6843F001039D
:103340000B6001680B6843F480630B60026380F8D4
:103350003D40E6E78800002010B5406A0022416B3E
:1033600001B18A62816B01B18A6201680B6823F442
:1033700080630B604285202180F83D1080F83E205C
:10338000016C41F010010164FEF782FB10BD2DE9D4
:10339000F041446A94F83D1094F83E50E06A226887
:1033A000536823F440735360626B002302B193624D
:1033B000A26B02B19362212232EA01074FF022068A
:1033C0000CD036EA010701D1202D07D094F83E1029
:1033D000002921D0618D012920D024E02068456892
:1033E00025F40065456063852820292902D02A2913
:1033F00007D00CE0226384F83D002046FEF7F3FF7F
:1034000005E0266384F83D002046FEF7EBFF2068C8
:10341000416841F440714160BDE8F08121680A686B
:1034200022F480620A6021684A6822F440724A608D
:1034300010F5803F06D0082804D0B0F12A4F01D003
:10344000202804D12068016841F4007101602068DF
:10345000416821F4805141602068416821F4006195
:1034600041606385206C18B12046FEF711FBD3E75D
:10347000202084F83D0094F83E0084F83E30402837
:1034800005D0122020632046FEF7C9FBC4E7236362
:103490002046FEF789FCBFE700684169C943090679
:1034A00001D400210161704770B5044690F83D00D9
:1034B00094F83E10102901D0402906D1222804D1C9
:1034C00021680A6822F400620A60282131EA0002B9
:1034D0004FF000054FF0200626D021684968090505
:1034E00005D4602803D084F83D6084F83E502563FD
:1034F00020684168090537D5416821F400614160C1
:10350000606B90F821203C49012A11D04163606B27
:10351000FDF732FF38B32068016821F00101016036
:1035200084F83D60606B1CE0256384F83D10DFE7A4
:10353000A06B4163A06BFDF71FFFA0B1206841693C
:10354000C943490605D40069616A0870606A401C75
:1035500060622068016821F00101016084F83D602B
:10356000A06B416B884710E094F83D10602910D0A3
:103570004169C943490605D40069616A0870606AF7
:10358000401C60622046FEF783FA206CC1071CD104
:1035900015E084F83D6025644169C943490605D4B6
:1035A0000069616A0870606A401C60622068016896
:1035B00021F0010101602046FEF750F9E5E781079F
:1035C00003D4410701D4000704D52068416821F4E1
:1035D000E061416094F83D00216C49070BD5282833
:1035E00009D10648E062256384F83D6084F83E50C6
:1035F0002046FEF713FB70BDA13200080000FFFF5C
:1036000001684A69D24352050FD46FF480624A615F
:10361000002140F8301F202242738173026942F07A
:10362000040202610173012070470020704710B549
:10363000C26A438D0168042B06D0438D032B08D04A
:10364000438D022B1DD012E04A6822F480624A604A
:103650000CE04B6823F480634B60042A06D0022AF6
:1036600004D001680A6822F480620A60016809696E
:10367000426A1170416A491C4162418D491E41856F
:1036800010BD012A30D0102A2ED0042A30D0022AB0
:103690002ED00A6842F400720A6001680969426A21
:1036A0001170416A491C4162428D521E4285026876
:1036B00012690A70416A491C4162418D491E418567
:1036C00001684A6822F440724A60202180F83D1067
:1036D00090F83E200021402A80F83E100CD01221A4
:1036E0000163FEF79CFA10BD0A6822F48062D3E7FA
:1036F0000A6842F48062CFE70163FEF755FB10BD14
:1037000038B590F83D1022290FD1418D03290DD9EC
:1037100001680969426A1170416A491C4162418D20
:10372000491E4185418D032906D038BDC26A022A4F
:1037300002D0012906D029B10068416821F48061D6
:10374000416038BD274946F2A812002309682024A9
:10375000B1FBF2F101EB810100910168009A521E68
:10376000009222D00A689205F8D40A6822F4806296
:103770000A6001684A6822F4E0624A6001680969E7
:10378000426A1170416A491C4162418D491E41855E
:1037900080F83D4090F83E1080F83E3040291DD022
:1037A00012210163FEF73BFA38BD026C42F02002A1
:1037B00002644A6822F4E0624A6001680969426A68
:1037C0001170416A491C4162418D491E418580F852
:1037D0003D4080F83E30FEF75BF938BD0363FEF7ED
:1037E000E3FA38BD8800002010B5C16A90F83D208A
:1037F000212A0BD1428D52B1416A026809781161C8
:10380000416A491C4162418D491E418510BD2023FA
:103810000022082912D0202910D011F5803F0DD0A8
:1038200001684C6824F4E0644C601121016380F865
:103830003E2080F83D30FEF7F3F910BD01684C687A
:1038400024F4E0644C6001680C6844F400740C607B
:10385000026380F83D3090F83E1080F83E20402909
:10386000E9D1FEF7A3FA10BD10B590F83D2090F80D
:103870003E30C16A048DB4B1212A03D0402B11D14E
:10388000222A0FD1418DE9B390F83E10402940D053
:10389000416A026809781161416A491C4162418D9F
:1038A000491E418510BD212AE8D120230022082984
:1038B00012D0202910D011F5803F0DD001684C683E
:1038C00024F4E0644C601121016380F83E2080F80C
:1038D0003D30FEF7A5F910BD01684C6824F4E064A2
:1038E0004C6001680C6844F400740C60026380F85A
:1038F0003D3090F83E1080F83E204029E9D1FEF797
:1039000055FA10BDFFE70068416821F4806141600D
:10391000F7E7BDE8104000F0F2B8000078B590F885
:103920003E40C26A056B90F83D6000230168222E7C
:1039300073D1066D0EB9402C6FD0046D1CB90469AB
:10394000B4F5404F1BD0448D94B3468D484C012EA6
:1039500020D0458D022D4DD00D6845F480650D6059
:1039600001684D682D0579D5A24273D0012A71D026
:10397000082A6FD0102A6DD0202A6BD06EE04A69D9
:103980008A6900920A6842F480720A60016D491CDB
:10399000016578BDA24214D10A6822F480620A60EF
:1039A00001684A68120504D50A6822F4806217E0AB
:1039B000FFE74A698A6900920A6842F400720A6065
:1039C00050E0082A10D0202A0ED0122D0AD0042A46
:1039D00003D0022A01D0102AE6D10A6842F480629C
:1039E0000A603BE0012ADFD00A6822F480620A60A4
:1039F0000168DEE7042A11D0022A0FD0102A0DD068
:103A00000D6845F400650D6001684D698D6900958C
:103A10000D6825F480650D6008E025E00D6845F42B
:103A200080650D6001684D698969009101684D6884
:103A30002D0517D5A24207D0012A05D0082A03D0A8
:103A4000102A01D0202A0DD14A6842F480524A60DF
:103A500008E0FFE74A6842F480524A6001684A6918
:103A600089690091036578BD48698869009078BDCF
:103A70000000FFFF90F83E1040290FD00169B1F51A
:103A8000804F18D0016DA1B3016D01290FD1416C98
:103A9000F12201F4407142EAD11106E0016D0029E2
:103AA000416C05D0C9B241F0010100680161704765
:103AB00001F0FE01F9E790F83D102129416C09D091
:103AC000C9B241F0010102681161416B29B1896AF3
:103AD00049B902E001F0FE01F5E7816B0029E6D06B
:103AE000896A0029E3D00068416841F400614160BF
:103AF0007047FFE7416CF02201F44071CBE710B54D
:103B000090F83D10026D4AB1026D012A14D0026D89
:103B1000022A16D0BDE81040FFF7BEBCC16C0129D7
:103B2000816C02D0C1F3072108E00268C9B21161BB
:103B3000016D891C016510BD816CC9B202681161FB
:103B400023E022291CD0428D0AB1212920D0428DA8
:103B5000002AF0D12129EED101684A6822F4E062FE
:103B60004A6001680A6842F400720A600021016339
:103B7000202280F83D2080F83E10FEF717F910BD96
:103B800001680A6842F480720A60016D491CD1E73D
:103B9000416A026809781161416A491C4162418D9C
:103BA000491E418510BD00002DE9F84F044600680C
:103BB00089460B9E01689846174641F48061016072
:103BC0002068016841F48071016000964FF0011B8C
:103BD0000022594620460A9B00F0B5F94FF4007ABE
:103BE00040B120680068C00501D5C4F840A003209A
:103BF000BDE8F88F216809F0FE00086133462849C6
:103C000020460A9A00F0E3F9F0BB20684169806918
:103C10000090324620460A9900F070FA40B1206CBC
:103C200004283AD12068016841F40071016034E051
:103C3000FDB2B8F1010F09D02168380A0861324697
:103C400020460A9900F05AFA0028E8D12068056158
:103C5000324620460A9900F051FA0028DFD1206848
:103C6000016841F4807101600096002259462046A7
:103C70000A9B00F068F90028B3D1216809F0FF0021
:103C800040F00100086100E007E0334604492046A7
:103C90000A9A00F09CF90028AAD00120A8E70000A9
:103CA000020001002DE9F843044600680D46DDE9F5
:103CB000089701689846164641F4807101604B46AA
:103CC00000224FF001112046009700F03CF948B166
:103CD00020680068C00502D54FF4007020640320FE
:103CE000BDE8F883216805F0FE0008613B464A46BE
:103CF0001549204600F06BF988B920684169806950
:103D000000903A464946204600F0F8F948B1206C48
:103D1000042804D12068016841F400710160012089
:103D2000DEE7F5B2B8F1010F09D02168300A086169
:103D30003A464946204600F0E1F90028E7D12068DC
:103D400005610020CCE700000200010038B50D46F7
:103D500090F83D2000212824944302680B4605D0AA
:103D600051699169009180F83C3038BD546824F461
:103D700080645460EA43540700D50121120601D53E
:103D8000828900E0028B80F83C3092B2FDF767FD3B
:103D900038BD0000F8B590F83D5004460068416811
:103DA00021F4E061416020680026416900910168CA
:103DB00041F0010101602068016821F48061016027
:103DC00020684168090520D5474F222D48D02A2D6B
:103DD00046D0616B096849686185618D19B1216CB4
:103DE00041F004012164416821F400614160606B8D
:103DF000FDF70EFB012808D0606B4763606BFDF791
:103E0000BBFA10B1606B416B8847608D08B32068C6
:103E10004169C943490708D40069616A0870606A4A
:103E2000401C6062608D401E608520684169C94306
:103E3000490608D40069616A0870606A401C6062C3
:103E4000608D401E6085608D18B1206C40F00400CC
:103E50002064206C00B32046BDE8F840FFF724BB87
:103E6000A16B096849686185618D19B1216C41F0C8
:103E700004012164416821F400614160A06BFDF7F9
:103E8000C7FA0128C1D0A06B4763A06BFDF774FA95
:103E90000028BAD0A06BB6E72A2D06D126632820C9
:103EA00084F83D002046FEF79DFA94F83D1020204E
:103EB00028290DD0216B222901D0222D07D126637C
:103EC00084F83D0084F83E602046FEF78BFAF8BD8A
:103ED0000649E162266384F83D0084F83E6020468E
:103EE000FDF79CFEF8BD0000A13200080000FFFFB6
:103EF00070B516460D4604461EE02046FFF780FBCF
:103F000008B1012070BD681C16D0FDF7A1FC801B14
:103F1000A84200D885B920684069C04340070BD546
:103F2000002044F8300F20216173A073216941F013
:103F3000200121612073E4E720684069C043400705
:103F4000DBD4002070BD2DE9F0471E4690460D469B
:103F50000446C1F30747DDF8209026E0701C24D00A
:103F6000FDF776FCA0EB0900B04200D8EEB920685E
:103F7000012F16D0806925EA00000004000C12D041
:103F80000020404511D1002044F8300F20216173FA
:103F9000A073216941F02001216120730120BDE857
:103FA000F0874069E7E70120EBE72068012F0AD09E
:103FB000806925EA00000004000C06D0002040457E
:103FC000CCD00020EBE74069F3E70120F7E72DE9CB
:103FD000F047984616460D4604464FF000094FF04C
:103FE000200AC1F3074723E020684069C043400529
:103FF00015D42068016841F40071016021686FF4F4
:1040000080604861C4F8309084F83DA084F83E9008
:10401000216C41F00401216484F83C9020E0701C84
:1040200006D0FDF715FCA0EB0800B04203D816B18E
:10403000012F1ED020E02068012F14D0806925EACE
:1040400000000004000C17D044F8309F84F80DA045
:1040500084F80E90216941F02001216184F80C90D0
:104060000120BDE8F087406925EA00000004000C4B
:10407000EAD12068406901E02068806925EA0000F3
:104080000004000CB0D1ECE72DE9F04116460D46D6
:10409000044600274FF0200829E04069C043C006CD
:1040A0000DD454F8301B6FF01000486144F80D7BBC
:1040B00004F81D89A777206A2062277714E0FDF7AE
:1040C000C7FB801BA84200D88DB920684069C04357
:1040D00040060CD544F8307F84F80D80A773206922
:1040E00040F02000206127730120BDE8F0812068A6
:1040F0004169C9434906D0D40020F6E770B5164699
:104100000D4604461EE02046FFF77AFA08B101206A
:1041100070BD681C16D0FDF79BFB801BA84200D821
:1041200085B920684069C04300060BD5002044F8DB
:10413000300F20216173A073216941F020012161BA
:104140002073E4E720684069C0430006DBD4002008
:1041500070BD00000EB540F6FF70CDE90032029050
:104160000A460123D1210248FDF73CFE00200EBD86
:104170008C0C00200EB540F6FF70CDE900320290A5
:104180000A460123D0210248FDF754FF00200EBD4E
:104190008C0C0020FEB500242A4800940194284984
:1041A0000294016089158160012505730475062656
:1041B00006614FF460214460C161FCF75DFF08B106
:1041C000FCF76AFECDE90045052469461D480294C6
:1041D000FCF7D0FE08B1FCF75FFE0220CDE90050ED
:1041E00069461848FCF7C6FE08B1FCF755FE0425E1
:1041F0000320CDE9005069461248FCF7BBFE08B128
:10420000FCF74AFE69460F48CDE90045FCF7B2FECF
:1042100008B1FCF741FECDE9006469460948FCF7A6
:10422000A9FE08B1FCF738FE0720CDE90006694673
:104230000448FCF79FFE002801D0FCF72DFEFEBDD0
:1042400000240140180C00200D4808B5416941F0D8
:10425000010141614069002200F001000090052148
:104260000B20FEF747F90B20FEF736F90022052157
:104270000E20FEF73FF9BDE808400E20FEF72CB9EE
:104280000010024030B5A3B000251C9501211CA8E8
:104290001D9503F0F9FF1E4C012120611E951EA8FB
:1042A0001F9503F0F1FF60612095012120A8219561
:1042B00003F0EAFFA0611C2216496846FBF7C1FF24
:1042C0000021684603F0FFFF124920601C221C31C8
:1042D00007A8FBF7B6FF002107A803F0F4FF0D497C
:1042E00060601C2238310EA8FBF7ABFF00210EA83E
:1042F00003F0E9FF0749A0601C22543115A8FBF721
:10430000A0FF002115A803F0DEFFE06023B030BD60
:104310006000002034A300082DE9F04385B000249C
:1043200035480094019402940394816941F010018E
:104330008161816901F010010491816941F02001DE
:104340008161816901F020010491816941F00401DA
:104350008161816901F004010491816941F00801E2
:1043600081618069DFF8948000F008004FF4005507
:104370000490002229464046FDF765FADFF8809058
:104380004FF4C067002239464846FDF75CFA0095B5
:10439000022601250396CDE9015469464046FDF702
:1043A0005FF94FF22B008DE85100DFF85880694625
:1043B0004046FDF755F94FF409408DE85100694634
:1043C0004846FDF74DF900970396CDE9015469463B
:1043D0004846FDF745F928038DE83100694648460F
:1043E000FDF73EF910208DE8310069464046FDF7A3
:1043F00037F905B0BDE8F08300100240001001401D
:1044000000080140000C01400D4810B50B49016047
:104410000C49416000214FF480428160C0E90312E1
:1044200041618161C1610162FDF734FB002803D065
:10443000BDE81040FCF730BD10BD00000054004046
:104440008C0C0020A08601000D4810B50B490160BE
:104450000C49416000214FF480428160C0E90312A1
:1044600041618161C1610162FDF714FB002803D045
:10447000BDE81040FCF710BD10BD00000058004022
:10448000E00C0020801A06000C4810B50A490160B3
:104490004FF4E1314160002181600C22C160C0E92C
:1044A00004128161C161FEF701FE002803D0BDE85E
:1044B0001040FCF7F1BC10BD00380140780D002021
:1044C0000C4810B50A4901604FF4E1314160002108
:1044D00081600C22C160C0E904128161C161FEF7F4
:1044E000E5FD002803D0BDE81040FCF7D5BC10BDA9
:1044F00000440040C00D0020FEE7FEE72DE9F04734
:104500001F46DDF8209014460E460546B94213D1E9
:10451000A54201D8074600E0174600D92C464DB207
:1045200006E04A46294678B200F04EF87F1CFFB2FA
:10453000A742F6D9BDE8F087A54212D1BE4201D804
:104540000C4600E01C4600D83E4645B206E04A460E
:1045500061B2284600F038F8641CE4B2B442F6D9DF
:10456000E8E7601BFCF711F98046B81BFCF70DF972
:104570004146FBF721FF80462846FCF70FF94146EC
:10458000FBF7E8FE07463046FCF708F93946FBF72B
:10459000DBFE0646A54213D9254611E02846FCF766
:1045A000FDF84146FBF7D6FE3146FBF77BFEFCF7F4
:1045B00020F941B24A4668B200F006F86D1CEDB22F
:1045C000A542EBD9B6E7000070B5802817D20029C4
:1045D00015DB3F2913DCCB1701EB5375C5F3C7037C
:1045E00025F007050124094E491B8C4006EBC0004D
:1045F000012A05D0C15C022A05D0A143C15470BD77
:10460000C15C2143FAE76140F8E70000A401002003
:104610001CB51D210448CDE90001012300227821A9
:104620000248FDF79FFD1CBD40000020E00C00206B
:104630002DE9F041134D6878002821D1124E002455
:1046400006F580672146002000F022F8002007EBE5
:10465000C41106EBC002125D0A54401C80B28028CF
:10466000F7D3641CE4B2082CECD301206870BDE8D9
:10467000F041054A0423A03A78210448FDF7EABA3C
:10468000BDE8F08138000020A4010020E00C0020EB
:104690000648002301F1B00200F8213000EB810050
:1046A000102142708170C370704700000401002027
:1046B00010B5502080F31188BFF34F8FBFF36F8F79
:1046C00004F07EFE18B104494FF0805008600020CD
:1046D00080F3118810BD000004ED00E030B593B008
:1046E00028216846FBF7C6FD14210AA8FBF7C2FD86
:1046F000002401210F9410940804CDE900101194B6
:104700001294029402250491CDE907504FF4E01071
:1047100009906846FEF7E8F808B172B6FEE70F2088
:10472000CDE90A054FF48060CDE90C4002210AA8CA
:104730000E94FDF7D7FF08B172B6FEE74FF40040C4
:1047400011900F950FA8FDF759FF002801D072B600
:10475000FEE713B030BD70470148FEF7AEBA000067
:10476000080E0020F0B50268164C174D174E4FF09A
:104770008047A04205D0B84203D0A84201D0B04241
:1047800003D122F070034A681A43A04205D0B84210
:1047900003D0A84201D0B04203D122F44073CA68CA
:1047A0001A434B6922F080021A4302608A68C2628F
:1047B0000A688262A04201D1096901630121416155
:1047C000F0BD0000002C0140000400400008004043
:1047D00010B5406A0021C185C184FEF72FFB10BDD2
:1047E00001680C3151E8002F22F4907241E8002357
:1047F000002BF5D10168143151E8002F22F001029D
:1048000041E80023002BF5D1016B012909D1016892
:104810000C3151E8002F22F0100241E80023002B58
:10482000F5D1202180F8421000210163704708B5BE
:1048300090F84210222901D0022008BD81684FF46F
:104840008053994201D1026922B1826A99421BD0F8
:1048500049B10AE00268816A5268C2F308020A801C
:10486000816A891C08E0016971B10168496801F039
:104870007F011170816A491C8162C18D491E090442
:10488000090CC18503D01BE001684968F1E70168A4
:10489000CA6822F02002CA600168CA6822F48072E5
:1048A000CA6001684A6922F001024A61202180F849
:1048B000421000214163026B012A03D0FEF79AFCEB
:1048C000002008BD016301680C3151E8002F22F07F
:1048D000100241E80023002BF5D101680A68D206D6
:1048E00002D50A6849680091818DFEF7A6FAE7E7CC
:1048F00070B5044600680169E26821F44051114333
:104900000161A16820690143606901432068C268B0
:1049100041F20C639A430A43C26020684169A2696C
:1049200021F44071114341611E492068884202D13F
:10493000FDF7A4FF01E0FDF791FF00EBC00101EBE3
:104940000011606864228000B1FBF0F3B3FBF2F366
:104950006FF018067343B1FBF0F5B1FBF0F605EB11
:104960008305322303EB0515B5FBF2F5B6FBF2F632
:1049700005F0F00505EB0615B1FBF0F6B1FBF0F024
:10498000B0FBF2F06FF01801484306EB800003EB38
:104990000010B0FBF2F0216800F00F00284488609E
:1049A00070BD0000003801402DE9F0411E46174659
:1049B00088460446069D26E0681C24D025B1FCF7F5
:1049C00047FF801BA8421ED920680C3050E8001F0A
:1049D00021F4D07140E80012002AF5D1206814308B
:1049E00050E8001F21F0010140E80012002AF5D133
:1049F000202084F8410084F84200002084F8400020
:104A00000320BDE8F0812068016838EA010004D085
:104A10000020B842D0D00020F3E70120F9E70000E1
:104A20000148FEF70DBA0000C00D0020FEE70000AF
:104A30000FB4054B10B503A9044A029800F06CF9B5
:104A400010BC5DF814FB00008D670008EC0000202E
:104A5000490050EAC12018BF04204A0D18BF40F099
:104A6000010040F2FF72B2EB515F08BF40F002005C
:104A7000012808BF052070470907090E002804DB3C
:104A800000F1E02080F80014704700F00F0000F102
:104A9000E02080F8141D70472DE9F0414F1E00EB17
:104AA000C7010446D1E9000115461E4637F006024B
:104AB0000DD02A463346FBF770FD7F1E04EBC7037B
:104AC000D3E90023FBF7C2FC37F00602F1D1022F35
:104AD00025D0042F13D0062F18BFBDE8F0812A4639
:104AE0003346FBF75AFDD4E90A23FBF7AFFC2A460D
:104AF0003346FBF752FDD4E90823FBF7A7FC2A460F
:104B00003346FBF74AFDD4E90623FBF79FFC2A4610
:104B10003346FBF742FDD4E90423FBF797FC2A4612
:104B20003346FBF73AFDD4E90223FBF78FFC2A4614
:104B30003346FBF732FDD4E90023BDE8F041FBF733
:104B400085BC0122FBF70ABEFBF780BC002213469E
:104B500010461146FBF793BD024A00201107FBF7F0
:104B6000FDBD000001FDFFFF02E008C8121F08C1E3
:104B7000002AFAD170477047002001E001C1121FDE
:104B8000002AFBD17047000001490860704700000F
:104B9000F00000202DE9FF5F82B00021DDE9043044
:104BA000020DDDF840B0034318D044F61050A2F2D5
:104BB000FF3242431514119801281FD0A5EB0B00BA
:104BC000401C5FEA000A4FF000064E4FDFF83891B4
:104BD000B046504615D5CAF1000413E011980124DF
:104BE0004AA3012801D16FEA0B010298119AC0E98A
:104BF0000031C0E9024206B0BDE8F09FCBF10000F1
:104C0000DFE704460021404A491842EB0450CDE951
:104C1000001012E0E00707D032463B4640464946C6
:104C2000FBF7BBFC8046894632463B461046194698
:104C3000FBF7B3FC06460F466410002CEAD1DDE911
:104C40000401DDE90023BAF1000F06DAFBF7A5FC49
:104C500042464B46FBF7A1FC05E0FBF710FD424640
:104C60004B46FBF70CFD04460E460022284BFBF793
:104C700049FF03D84FF0FF30014607E00022254BE3
:104C800020463146FBF7E2FBFBF70BFF102409E05F
:104C9000002C0ADB0A220023FBF71DFE039B3032A7
:104CA0001A55641E50EA0102F2D1641C039AC4F141
:104CB00011031444119A012A03D0012208430DD193
:104CC0000AE0084304D000204FF0110B119072E766
:104CD000A3EB0B056D1E0DE05B4504DD4FF00002FC
:104CE00005F1010504E003DA4FF00002A5F101052A
:104CF000002AECD002981199C0E90231C0E90045C0
:104D000079E70000000014400000F03F3000000090
:104D10000000F0430000E03F2DE9FF4F95B09A46B8
:104D2000884606460025EEE1252877D1002427464F
:104D3000F94A0121039400E0044316F8013F203BA7
:104D400001FA03F01042F7D130782A2811D06FF021
:104D50002F033078A0F13002092A16D8039A44F0C4
:104D6000020402EB820203EB42021044761C039021
:104D7000EFE758F8042B0392002A03DA504244F478
:104D80000054039044F00204761C30782E2816D18B
:104D900016F8010F44F004042A280DD06FF02F02FA
:104DA0003078A0F13003092B09D807EB870302EB19
:104DB0004303C718761CF3E758F8047B761C307859
:104DC0006C280FD006DC4C2817D068280DD06A2834
:104DD00014D104E0742810D07A280FD10DE044F4E7
:104DE00000140AE044F4801401E044F440147278A2
:104DF000824202D104F58014761C761C3078662835
:104E00000BD013DC582877D009DC002875D0452852
:104E1000F6D04628F4D047281AD193E118E0632849
:104E200035D0642879D0652812D18BE1702873D0F1
:104E300008DC6728F1D069286FD06E280DD06F2864
:104E400006D1ACE073282CD0752874D0782853D0C4
:104E50005246179990476D1C54E1C4F30250022842
:104E600009D003280DD0D8F8001004280DD00D600B
:104E700008F1040846E1D8F80010EA17C1E9005229
:104E8000F6E7D8F800100D80F2E70D70F0E718F89B
:104E9000041B8DF8001000208DF80100EB46012066
:104EA00003E058F804BB4FF0FF3061074FF00001FA
:104EB00002D40DE009F101018946B9420FDA8145BA
:104EC000F8DB1BF809100029F4D108E009F1010111
:104ED00089468142FADB1BF809100029F6D10398B4
:104EE0005346A0EB090721463846179A00F080FA8E
:104EF000284400EB090507E044E008E10DE01BF859
:104F0000010B524617999047B9F10109F7D2534660
:104F100021463846179AF2E039E00A21C4F30252DA
:104F20004FF0000B0091022A06D058F8040BC1176D
:104F3000032A09D00AE023E008F1070020F0070265
:104F4000F2E80201904605E000B2C117042A01D13F
:104F500040B2C117002906DA0A460021404261EB3F
:104F600002012D2202E0220504D52B228DF8042017
:104F7000012203E0E20701D02022F7E7914657E043
:104F80000A2100E010214FF0000B00910BE01021EE
:104F90004FF0000B44F004040827009103E00820C0
:104FA0004FF0000B0090C4F30252022A05D058F8CB
:104FB000040B0021032A08D008E008F1070020F0C4
:104FC0000702F2E80201904603E080B2042A00D111
:104FD000C0B24FF0000922072AD53278702A07D0D4
:104FE000DDF800C08CF0100C5CEA0B0C05D00EE074
:104FF00040228DF80420012208E050EA010306D087
:1050000030238DF804308DF8052002229146009B54
:1050100083F0080353EA0B030AD150EA010201D1DD
:10502000620705D530228DF804204FF001097F1E5C
:105030003278582A04D039A20C920CAA02920BE0C2
:105040003BA2F9E75B46009AFBF745FC0C9B9B5C97
:10505000029A521E0292137050EA0102F2D1029893
:1050600004A9081A00F1200B600702D524F480344B
:1050700000E001275F4502DDA7EB0B0000E0002008
:1050800000EB0B01009003984944401A0390E003A1
:1050900006D453462146179A039800F0A9F905440F
:1050A000002706E001A85246C05D179990476D1C85
:1050B0007F1C4F45F6DBE0030CD553462146179A7B
:1050C000039800F095F9054404E030205246179902
:1050D00090476D1C0099481E00900029F5DC08E0FF
:1050E0000298029952460078491C029117999047FC
:1050F0006D1CBBF10001ABF1010BF1DC5BE100F0D9
:1051000065F90544761C307800287FF40DAE19B09F
:105110002846BDE8F08F0000092801003031323305
:1051200034353637383961626364656600000000E3
:1051300030313233343536373839414243444546CD
:1051400000000000600700D4062708F1070020F0E7
:105150000700F0E80223804603F0004C5FEA0C00F1
:1051600001D097A009E0200501D596A005E0E00751
:1051700001D095A001E0AFF24C001390307823F0FD
:10518000004365280CD006DC452809D046281DD0F0
:1051900047287FD13BE0662818D067287AD136E0CF
:1051A0000021112F01DB112000E0781CCDE9000166
:1051B00004A90CA8FFF7EEFCDDE90D010C9A4FF0F5
:1051C000000B07F10109109200914EE04FF00040F2
:1051D0000097CDE9011004A90CA8FFF7DBFCDDE97D
:1051E0000D020C9B0F994FF0000B9146109300920B
:1051F00011B9791C00EB0109B7EB090003D4C0F128
:10520000FF3B07F10109A9EB0700019042E0012FE4
:1052100000DA01270021112F01DD112000E03846BE
:10522000CDE9000104A90CA8FFF7B4FCDDE90D01EC
:105230000C9A00914FF0000BB946109221070FD441
:10524000009A4A4503DA914601E0A9F10109B9F152
:10525000010F05DD109AA9F10101515C3029F4D04C
:10526000B84202DA10F1040F03DA0121CDE901108E
:1052700010E0002803DC8344A9EB000102E0411C9C
:10528000494500DD8946A0EB0B00401C01904FF022
:1052900000400290200705D40198484502DB4FF0FA
:1052A000FF30019000208DF84B0002980DF14B0764
:1052B000B0F1004F25D002200C902B200D900298C9
:1052C00000280CDA404202902D200D9007E00A21C0
:1052D0000298FBF7EAFA3031029007F8011D0C99A9
:1052E000481E0C900029F2DC02980028EFD1791EAC
:1052F0000D980870307800F0200040F0450007F865
:10530000020D11A8C01BC01D02901398007800B1B7
:10531000012000EB0901019801EBE07102980144C2
:105320000398401A401E0390E00306D453462146DA
:10533000179A039800F05CF805441398007818B1A8
:105340005246179990476D1CE00323D553462146DA
:10535000179A039800F04CF805441BE0BBF1000FCE
:1053600007DB0098584504DD1098179910F80B00DA
:1053700001E0179930205246904701980BF1010B3C
:10538000401E05F10105019004D12E2052461799C7
:1053900090476D1CB9F10001A9F10109DEDC05E0BF
:1053A00017F8010B5246179990476D1C0299481E39
:1053B00002900029F4DC53462146179A03989EE692
:1053C0002D0000002B000000200000002DE9F0411E
:1053D000044600251E461746880404D405E03946D5
:1053E0002020B0476D1C641EF9D52846BDE8F08129
:1053F0002DE9F041044600251E469046C80301D51C
:10540000302700E02027880404D505E041463846CF
:10541000B0476D1C641EF9D52846BDE8F081000038
:105420002DE9FE4F80460F460025684601F0BCF985
:1054300000246FF00F0AE946012658F8240057F8B7
:105440002410401A00D54042FBF79FF95146FAF765
:10545000F1FF59F8241011F0FF4F0BD0FAF7ACFF11
:105460004FF07E51FAF770FF094920F00040884262
:1054700005DC07E0074908440749884202D306FAD9
:1054800004F00543641C032CD7DB2846BDE8FE8FDF
:10549000295C0F3E666666C19A99D9002DE9F04DE8
:1054A0008D4F21F0004A86B005460C46BA452ADBEE
:1054B000AAEB070028430AD08848824501DC1AD1AC
:1054C000CDB106B02846BDE8F04DFFF73ABB844A9F
:1054D000844B2846FBF761F807460E46824A834B09
:1054E00028462146FBF759F806B03A463346BDE850
:1054F000F04DFAF7ABBF0120FFF746FB06B0BDE861
:10550000F04DFFF723BB7A48824542DABAF1795F62
:105510000BDA2846FFF79CFA042808BFFFF71CFBAC
:10552000284606B02146BDE8F08D2A460B461046B7
:10553000FBF733F8834602466E480E460B460621BB
:105540007844FFF7A9FA5A463346FBF726F8804617
:1055500069488A465A46334604217844FFF79CFA44
:105560005A463346FBF719F800223B46FAF76EFF1E
:1055700002460B4640465146FBF781F82A46234631
:10558000FBF70BF806B02A462346BDE8F04DFAF7C4
:105590005DBF284624F0004100223D463B46FAF715
:1055A000F9FF4FF0FF32FBF7D9F8064602465348A1
:1055B0000F460B4606217844FFF76EFA32463B460B
:1055C000FAF7EBFFCDE900014D4832463B46042196
:1055D0007844FFF761FA32463B46FAF7DEFF0022D5
:1055E0002B46FAF733FF834602913046394603F0E3
:1055F000ADF9804643480D46504517DCDDE9000112
:105600005A46029BFBF73BF842462B46FAF7C5FF8A
:1056100042462B46FAF71AFF0122FBF79FF8304A61
:10562000304BFAF7B4FF304A304B4CE04FF0000AF1
:1056300052460B464046FAF709FFCDE903105246A1
:105640002B4610461946FAF7A8FF32463B46FAF7B2
:10565000A1FFDDE90332FBF712F806460F46DDE94C
:1056600000015A46029BFBF70AF88346009101228B
:1056700030463946FBF772F8194A1A4BFAF78AFF97
:1056800006460F46012240462946FBF767F85A4670
:10569000009BFAF782FF32463B46FAF778FF064650
:1056A0000F46012250462946FBF758F80E4DDFF809
:1056B00058802A464346FAF76DFF32463B46FAF7D2
:1056C00069FF2A464346FAF765FF002CD8BF81F0F0
:1056D000004106B0BDE8F08D0000F03F0000F07F13
:1056E000075C143326A6913C182D4454FB21F93F46
:1056F0000000E03F9C4E0000B24E0000264E00002D
:105700003C4E00003333EF3FFB21E93F2DE9F84FDA
:1057100004460D4621F0004000917349814211DC9E
:105720007249884201DC06D12CB120462946BDE8E9
:10573000F84FFFF706BA6E48002DCCBF6D496E4991
:10574000BDE8F88F6D49814211DD6D498142D8BFB6
:105750004FF0FF366DDD20462946FFF779F9042822
:1057600008BFFFF7F9F920462946BDE8F88F6549DB
:10577000654F25F00045814233DD6449814219DDE2
:10578000002632464FF0804320462946FAF75EFE57
:1057900080468A46012220462946FAF7DFFF00228A
:1057A0003B46FAF7F4FE42465346FAF768FF0446D2
:1057B0000D463EE001260022BA463B4620462946D9
:1057C000FAF744FE80460F460022534620462946FB
:1057D000FAF7DDFE42463B46FAF751FF04460D4616
:1057E00027E04B4981421BDDDFF828A10226002279
:1057F000534620462946FAF7D0FE00223B46FAF7E8
:1058000025FE80460F460022534620462946FAF7D9
:10581000BEFE42463B46FAF732FF04460D4608E01C
:10582000032622462B4600203B49FAF728FF044670
:105830000D4622462B4610461946FAF7AEFE8B4619
:10584000824602460B46FAF7A8FE07460246334850
:1058500088460B4606217844FFF71EF952465B4600
:10586000FAF79BFE82462E488B463A464346052170
:105870007844FFF711F93A464346FAF78EFE02469E
:105880000B46002E504659460CDAFAF7DFFD224649
:105890002B46FAF782FE01B022462B46BDE8F04FB8
:1058A000FAF778BEFAF7D2FD22462B46FAF775FED4
:1058B0001C4A7A4402EBC603D3E90023FAF767FED9
:1058C00022462B46FAF763FE174A7A4402EBC603D8
:1058D000D3E90023FAF75EFE009A002AB8BF81F0F0
:1058E0000041BDE8F88F0000000010440000F07F88
:1058F000182D4454FB21F93FFB21F9BF0000DC3F88
:105900000000203E0000F33F0000F03F0000E63FB3
:10591000008003400000F83F0000F0BF3E4C000054
:10592000FC4B00009A4B0000624B00002DE9F04D4B
:105930009446CCF1000423F000464CEA0404594F8D
:1059400046EAD4749A46884621F00042BC4206D802
:10595000454240EA050442EAD474BC4204D9BDE899
:10596000F04D6246FFF7F0B8AAF14055A5F17F650A
:1059700055EA0C040BD0022404EAAA744A4DDFF85D
:105980002CE144EAD87452EA000B04D00CE0BDE8E4
:10599000F04DFFF7BBBE002C14BF012CBDE8F08D0D
:1059A000022C30D0032C32D056EA0C0B0AD0BE4267
:1059B00020D1BA4209D126F0804622F080423346F7
:1059C000114617E000291ADB25E0DFF8E4B0FB44BC
:1059D000002C04BFDBE90001BDE8F08D012C02BF03
:1059E000DBE9000181F00041BDE8F08D022C0AD016
:1059F000032C0CD0BA4212D1B8F1000F0BDA2A48AE
:105A00002C49BDE8F08D28462B49BDE8F08D28468D
:105A10007146BDE8F08D24482849BDE8F08D921B01
:105A200012153C2AC4BF204F244E10DCBAF1000FDF
:105A3000BEBF12F13C0F00273E4608DB6246FAF774
:105A40001EFE21F00041FFF761FE07460E4694B1AD
:105A5000012C08BF86F000460DD0194A194B022CC4
:105A60003846314615D0FAF792FD2A46BDE8F04D8A
:105A7000114BFAF78CBD0022134638463146FBF72E
:105A800029F804BF0220FFF77FF838463146BDE809
:105A9000F08DFAF77CFD2A46BDE8F04D064BFAF78B
:105AA00079BD00000000F07F182D4454FB2109C08F
:105AB000F64A0000FB21F9BFFB210940FB21F93F19
:105AC000075C143326A6A13C2DE9F0410C4605469F
:105AD0004FB2012A1BD06EB2022A45D0032A2CD025
